{
  "contractName": "CertificateRegistry",
  "abi": [
    {
      "anonymous": false,
      "inputs": [
        {
          "indexed": true,
          "internalType": "string",
          "name": "user",
          "type": "string"
        },
        {
          "indexed": true,
          "internalType": "bytes",
          "name": "_certBytes",
          "type": "bytes"
        },
        {
          "indexed": false,
          "internalType": "uint256",
          "name": "dataLength",
          "type": "uint256"
        }
      ],
      "name": "CertificateRegistered",
      "type": "event"
    },
    {
      "constant": true,
      "inputs": [
        {
          "internalType": "string",
          "name": "",
          "type": "string"
        }
      ],
      "name": "certData",
      "outputs": [
        {
          "internalType": "bytes",
          "name": "",
          "type": "bytes"
        }
      ],
      "payable": false,
      "stateMutability": "view",
      "type": "function"
    },
    {
      "constant": false,
      "inputs": [
        {
          "internalType": "bytes",
          "name": "_certBytes",
          "type": "bytes"
        },
        {
          "internalType": "string",
          "name": "user",
          "type": "string"
        }
      ],
      "name": "registerCertificate",
      "outputs": [],
      "payable": false,
      "stateMutability": "nonpayable",
      "type": "function"
    },
    {
      "constant": true,
      "inputs": [
        {
          "internalType": "string",
          "name": "_user",
          "type": "string"
        }
      ],
      "name": "getCertificate",
      "outputs": [
        {
          "internalType": "bytes",
          "name": "",
          "type": "bytes"
        }
      ],
      "payable": false,
      "stateMutability": "view",
      "type": "function"
    },
    {
      "constant": true,
      "inputs": [],
      "name": "getAllUsers",
      "outputs": [
        {
          "internalType": "string[]",
          "name": "",
          "type": "string[]"
        }
      ],
      "payable": false,
      "stateMutability": "view",
      "type": "function"
    }
  ],
  "bytecode": "0x608060405234801561001057600080fd5b50610bc0806100206000396000f3fe608060405234801561001057600080fd5b506004361061004c5760003560e01c80639ff1416014610051578063a7d351f01461006d578063e2842d791461009d578063ed0f2e75146100bb575b600080fd5b61006b60048036036100669190810190610690565b6100eb565b005b610087600480360361008291908101906106fc565b610200565b6040516100949190610973565b60405180910390f35b6100a56102c6565b6040516100b29190610951565b60405180910390f35b6100d560048036036100d0919081019061073d565b6103af565b6040516100e29190610995565b60405180910390f35b600080826040516100fc919061093a565b9081526020016040518091039020805460018160011615610100020316600290049050141561016557600181908060018154018082558091505090600182039060005260206000200160009091929091909150908051906020019061016292919061046f565b50505b81600082604051610176919061093a565b908152602001604051809103902090805190602001906101979291906104ef565b50816040516101a69190610923565b6040518091039020816040516101bc919061093a565b60405180910390207f74e9a9e3d7f79345ff7d0fb483f706cf80232e367a98fa24d0cd4fd66c76071e84516040516101f491906109b7565b60405180910390a35050565b6000818051602081018201805184825260208301602085012081835280955050505050506000915090508054600181600116156101000203166002900480601f0160208091040260200160405190810160405280929190818152602001828054600181600116156101000203166002900480156102be5780601f10610293576101008083540402835291602001916102be565b820191906000526020600020905b8154815290600101906020018083116102a157829003601f168201915b505050505081565b60606001805480602002602001604051908101604052809291908181526020016000905b828210156103a6578382906000526020600020018054600181600116156101000203166002900480601f0160208091040260200160405190810160405280929190818152602001828054600181600116156101000203166002900480156103925780601f1061036757610100808354040283529160200191610392565b820191906000526020600020905b81548152906001019060200180831161037557829003601f168201915b5050505050815260200190600101906102ea565b50505050905090565b60606000826040516103c1919061093a565b90815260200160405180910390208054600181600116156101000203166002900480601f0160208091040260200160405190810160405280929190818152602001828054600181600116156101000203166002900480156104635780601f1061043857610100808354040283529160200191610463565b820191906000526020600020905b81548152906001019060200180831161044657829003601f168201915b50505050509050919050565b828054600181600116156101000203166002900490600052602060002090601f016020900481019282601f106104b057805160ff19168380011785556104de565b828001600101855582156104de579182015b828111156104dd5782518255916020019190600101906104c2565b5b5090506104eb919061056f565b5090565b828054600181600116156101000203166002900490600052602060002090601f016020900481019282601f1061053057805160ff191683800117855561055e565b8280016001018555821561055e579182015b8281111561055d578251825591602001919060010190610542565b5b50905061056b919061056f565b5090565b61059191905b8082111561058d576000816000905550600101610575565b5090565b90565b600082601f8301126105a557600080fd5b81356105b86105b3826109ff565b6109d2565b915080825260208301602083018583830111156105d457600080fd5b6105df838284610b2a565b50505092915050565b600082601f8301126105f957600080fd5b813561060c61060782610a2b565b6109d2565b9150808252602083016020830185838301111561062857600080fd5b610633838284610b2a565b50505092915050565b600082601f83011261064d57600080fd5b813561066061065b82610a57565b6109d2565b9150808252602083016020830185838301111561067c57600080fd5b610687838284610b2a565b50505092915050565b600080604083850312156106a357600080fd5b600083013567ffffffffffffffff8111156106bd57600080fd5b6106c985828601610594565b925050602083013567ffffffffffffffff8111156106e657600080fd5b6106f28582860161063c565b9150509250929050565b60006020828403121561070e57600080fd5b600082013567ffffffffffffffff81111561072857600080fd5b610734848285016105e8565b91505092915050565b60006020828403121561074f57600080fd5b600082013567ffffffffffffffff81111561076957600080fd5b6107758482850161063c565b91505092915050565b600061078a83836108db565b905092915050565b600061079d82610a93565b6107a78185610ad7565b9350836020820285016107b985610a83565b8060005b858110156107f557848403895281516107d6858261077e565b94506107e183610aca565b925060208a019950506001810190506107bd565b50829750879550505050505092915050565b600061081282610aa9565b61081c8185610ae8565b935061082c818560208601610b39565b61083581610b6c565b840191505092915050565b600061084b82610aa9565b6108558185610af9565b9350610865818560208601610b39565b80840191505092915050565b600061087c82610a9e565b6108868185610ae8565b9350610896818560208601610b39565b61089f81610b6c565b840191505092915050565b60006108b582610abf565b6108bf8185610b15565b93506108cf818560208601610b39565b80840191505092915050565b60006108e682610ab4565b6108f08185610b04565b9350610900818560208601610b39565b61090981610b6c565b840191505092915050565b61091d81610b20565b82525050565b600061092f8284610840565b915081905092915050565b600061094682846108aa565b915081905092915050565b6000602082019050818103600083015261096b8184610792565b905092915050565b6000602082019050818103600083015261098d8184610871565b905092915050565b600060208201905081810360008301526109af8184610807565b905092915050565b60006020820190506109cc6000830184610914565b92915050565b6000604051905081810181811067ffffffffffffffff821117156109f557600080fd5b8060405250919050565b600067ffffffffffffffff821115610a1657600080fd5b601f19601f8301169050602081019050919050565b600067ffffffffffffffff821115610a4257600080fd5b601f19601f8301169050602081019050919050565b600067ffffffffffffffff821115610a6e57600080fd5b601f19601f8301169050602081019050919050565b6000819050602082019050919050565b600081519050919050565b600081519050919050565b600081519050919050565b600081519050919050565b600081519050919050565b6000602082019050919050565b600082825260208201905092915050565b600082825260208201905092915050565b600081905092915050565b600082825260208201905092915050565b600081905092915050565b6000819050919050565b82818337600083830152505050565b60005b83811015610b57578082015181840152602081019050610b3c565b83811115610b66576000848401525b50505050565b6000601f19601f830116905091905056fea365627a7a723158202bffcc35f33461b089b8a7edc405202e5938eff22ce266f9a151220f435c38636c6578706572696d656e74616cf564736f6c63430005100040",
  "source": "// SPDX-License-Identifier: MIT\r\npragma solidity ^0.5.0;\r\npragma experimental ABIEncoderV2;\r\n\r\ncontract CertificateRegistry {\r\n    // Mapping from user identifier to certificate bytes\r\n    mapping(string => bytes) public certData;\r\n\r\n    // Array to keep track of all registered user identifiers\r\n    string[] private users;\r\n\r\n    event CertificateRegistered(\r\n        string indexed user,\r\n        bytes indexed _certBytes,\r\n        uint256 dataLength\r\n    );\r\n\r\n    /**\r\n     * @dev Registers a certificate for a given user and stores the data.\r\n     *      Also tracks the user in an array for enumeration.\r\n     * @param _certBytes The certificate data to store.\r\n     * @param user The user identifier (e.g., address or username).\r\n     */\r\n    function registerCertificate(bytes memory _certBytes, string memory user) public {\r\n        // If new user, add to the users array\r\n        if (certData[user].length == 0) {\r\n            users.push(user);\r\n        }\r\n\r\n        // Store full data (optional!)\r\n        certData[user] = _certBytes;\r\n        emit CertificateRegistered(user, _certBytes, _certBytes.length);\r\n    }\r\n\r\n    /**\r\n     * @dev Returns the certificate data for a given user.\r\n     * @param _user The user identifier.\r\n     * @return The certificate bytes associated with the user.\r\n     */\r\n    function getCertificate(string memory _user) public view returns (bytes memory) {\r\n        return certData[_user];\r\n    }\r\n\r\n    /**\r\n     * @dev Returns the list of all users who have registered certificates.\r\n     * @return An array of user identifiers.\r\n     */\r\n    function getAllUsers() public view returns (string[] memory) {\r\n        return users;\r\n    }\r\n}\r\n",
  "sourcePath": "E:\\Education\\B Tech\\Semester 8\\Network Security\\CourseProject\\Project\\Backend\\health-chain_secure_backend\\contracts\\Certificates.sol",
  "compiler": {
    "name": "solc",
    "version": "0.5.16+commit.9c3226ce.Emscripten.clang"
  },
  "schemaVersion": "3.4.16",
  "updatedAt": "2025-05-03T10:53:23.742Z",
  "networkType": "ethereum",
  "devdoc": {
    "methods": {
      "getAllUsers()": {
        "details": "Returns the list of all users who have registered certificates.",
        "return": "An array of user identifiers."
      },
      "getCertificate(string)": {
        "details": "Returns the certificate data for a given user.",
        "params": {
          "_user": "The user identifier."
        },
        "return": "The certificate bytes associated with the user."
      },
      "registerCertificate(bytes,string)": {
        "details": "Registers a certificate for a given user and stores the data.     Also tracks the user in an array for enumeration.",
        "params": {
          "_certBytes": "The certificate data to store.",
          "user": "The user identifier (e.g., address or username)."
        }
      }
    }
  },
  "userdoc": {
    "methods": {}
  }
}